:020000040800F2
:10000000D8390020A59C0008C55801084D9B000860
:100010004D9B00084D9B00084D9B00084D9B000820
:100020004D9B00084D9B00084D9B0008519A00080D
:100030004D9B00084D9B0008099A00080D98000888
:100040007D9C00087D9C00087D9C00087D9C00082C
:100050007D9C00087D9C00087D9C00087D9C00081C
:100060007D9C00087D9C00087D9C00087D9C00080C
:100070007D9C00087D9C00087D9C00087D9C0008FC
:100080007D9C00087D9C00087D9C00087D9C0008EC
:100090007D9C00087D9C00087D9C00087D9C0008DC
:1000A0007D9C00087D9C00087D9C00087D9C0008CC
:1000B0007D9C00087D9C00087D9C00087D9C0008BC
:1000C0007D9C00087D9C00087D9C00087D9C0008AC
:1000D0007D9C00087D9C00087D9C00087D9C00089C
:1000E0007D9C00087D9C00087D9C00087D9C00088C
:1000F0007D9C00087D9C00087D9C00087D9C00087C
:100100007D9C00087D9C00087D9C00087D9C00086B
:100110007D9C00087D9C00087D9C00087D9C00085B
:100120007D9C00087D9C00087D9C00087D9C00084B
:100130007D9C00087D9C00087D9C00087D9C00083B
:100140007D9C00087D9C00087D9C00087D9C00082B
:100150007D9C00087D9C00087D9C00087D9C00081B
:100160007D9C00087D9C00087D9C00087D9C00080B
:100170007D9C00087D9C00087D9C00087D9C0008FB
:080180007D9C00087D9C000835
:08018800FFFFFFFFFFFFFFFF77
:1001900001F0FF01102A2BDB10F0070F08D010F838
:1001A000013B013A8B422DD010F0070F42B3F6D13C
:1001B000F0B441EA012141EA014122F007047FF055
:1001C00000070023F0E80256083C85EA010586EAAC
:1001D000010685FA47F5A3FA87F586FA47F6A5FAE8
:1001E00087F68EB9EED1F0BC01F0FF0102F00702F4
:1001F00032B110F8013B013A83EA010313B1F8D19F
:100200000020704701387047002D06BF354603387F
:10021000073815F0010F07D1013015F4807F02BFB8
:10022000013015F4C03F0130F0BC0138704700BF09
:100230002DE9F84F55EC104BB74925F000438B42A0
:100240001BDD03F1404303F58013234309D1002D47
:1002500000F3118296A1D1E9000141EC100BBDE839
:10026000F88F10EE102A2B462046294601F078F828
:1002700002460B4601F056FBEFE7A8498B4200F31C
:100280008780A74A934240F3F98110EE102A10EEBE
:10029000100A2B46294601F01BFA87A3D3E9002355
:1002A00006460F4601F014FA85A3D3E9002301F0B6
:1002B00059F832463B4601F00BFA83A3D3E90023F9
:1002C00001F04EF832463B4601F002FA80A3D3E932
:1002D000002301F047F832463B4601F0F9F97EA3CE
:1002E000D3E9002301F03CF832463B4601F0F0F937
:1002F0007BA3D3E9002301F035F832463B4601F0F9
:10030000E7F979A3D3E90023804689463046394688
:1003100001F0DEF976A3D3E9002301F021F832469B
:100320003B4601F0D5F974A3D3E9002301F01AF894
:1003300032463B4601F0CCF971A3D3E9002301F02A
:100340000FF832463B4601F0C3F90022754B01F02D
:1003500009F802460B464046494601F0E3FA2246B8
:100360002B4601F0B5F902460B4667A1D1E9000121
:1003700000F0F6FF02460B462046294600F0F0FF4B
:1003800002460B4662A1D1E9000100F0E9FF64E7F3
:10039000002D80F2CB8010EE100A0022614B29461E
:1003A00000F0E0FF0022604B01F092F942A3D3E994
:1003B000002304460D4601F08BF941A3D3E9002345
:1003C00000F0D0FF22462B4601F082F93EA3D3E98C
:1003D000002300F0C5FF22462B4601F079F93CA32B
:1003E000D3E9002300F0BEFF22462B4601F070F94E
:1003F00039A3D3E9002300F0B3FF22462B4601F0D6
:1004000067F937A3D3E9002300F0ACFF22462B465F
:1004100001F05EF945EC104B8046894601F0FAFC8C
:1004200031A3D3E900232046294657EC106B01F095
:100430004FF92FA3D3E9002300F092FF22462B4669
:1004400001F046F92CA3D3E9002300F08BFF2246EC
:100450002B4601F03DF92AA3D3E9002300F080FFE9
:1004600022462B4601F034F900222E4B00F07AFF91
:1004700002460B464046494601F054FA32463B4696
:1004800001F026F920A3D3E9002300F069FF3246EA
:100490003B4600F067FF02460B4600F063FF024652
:1004A0000B4603A1D1E900016FE700BFAFF3008065
:1004B000182D4454FB21094009F7FD0DE13D023F91
:1004C00088B20175E0EF493F3B8F68B52882A43FB1
:1004D0005544880E55C1C93F7D6FEB0312D6D43FFA
:1004E000555555555555C53F82922EB1C5B8B33FA8
:1004F00059018D1B6C06E63FC88A599CE52A0040CD
:100500004B2D8A1C273A0340075C143326A6913CE6
:10051000182D4454FB21F93FFFFFEF3FFFFFDF3F62
:100520000000603C0000F03F0000E03F10EE102AA9
:100530002B4600206A4900F013FF0022694B01F0AE
:10054000C7F804460D4645EC104B01F063FC4EA382
:10055000D3E900232046294659EC108B01F0B8F866
:100560004BA3D3E9002300F0FDFE22462B4601F009
:10057000AFF849A3D3E9002300F0F2FE22462B4650
:1005800001F0A6F846A3D3E9002300F0EBFE2246D3
:100590002B4601F09DF844A3D3E9002300F0E0FED0
:1005A00022462B4601F094F841A3D3E9002300F042
:1005B000D9FE22462B4601F08BF83FA3D3E9002356
:1005C00082468B462046294601F082F83CA3D3E9B7
:1005D000002300F0C5FE22462B4601F079F83AA32D
:1005E000D3E9002300F0BEFE22462B4601F070F84E
:1005F00037A3D3E9002300F0B3FE22462B4601F0D7
:1006000067F80022364B00F0ADFE02460B4650461E
:10061000594601F087F942464B4601F059F8002649
:1006200082468B4632464B463046494601F050F8EA
:1006300002460B462046294600F092FE324604460A
:100640000D464B464046494600F08CFE02460B469E
:100650002046294601F066F902460B4650465946A7
:1006600000F080FE32464B4600F07CFE02460B4610
:1006700000F078FEF1E500200021EEE516A1D1E9B9
:100680000001EAE5AFF3008009F7FD0DE13D023F0F
:1006900088B20175E0EF493F3B8F68B52882A43FDF
:1006A0005544880E55C1C93F7D6FEB0312D6D43F28
:1006B000555555555555C53F82922EB1C5B8B33FD6
:1006C00059018D1B6C06E63FC88A599CE52A0040FB
:1006D0004B2D8A1C273A0340182D4454FB21F93F27
:1006E0000000F03F0000E03F9FED010B704700BFAE
:1006F000000000000000F87F2DE9F74F03690C6946
:10070000A34280467FDB013C01F11407A00008F101
:1007100014052B18019357F8243055F82420013381
:100720009A4207EB0009B2FBF3F631D34FF0000A0F
:10073000BC46AE46D3465CF8042B93B206FB03A33B
:100740004FEA134A9BB2ABEB0303120CDEF800B086
:1007500006FB02A213FA8BF34FEA124A1FFA82FB3E
:10076000DEF80020CBEB124202EB23429BB243EABD
:100770000243E1454FEA224B4EF8043BDBD22B58B3
:1007800033B9019B043B9D421A4630D3C8F8104050
:10079000404603F016F9002825DB013628464FF0C5
:1007A000000C57F8042BD0F800E093B2ACEB030335
:1007B000120C13FA8EF3C2EB1E4202EB23429BB2E1
:1007C00043EA0243B9454FEA224C40F8043BE8D2E1
:1007D00055F8242005EB84032AB9043B9D421A46B0
:1007E0000BD3C8F81040304603B0BDE8F08F126854
:1007F000043B002ACAD1013CC5E71268043B002A29
:10080000EFD1013CEAE70020EEE72DE9F04F99B087
:1008100055EC104B0891016C0D9283461493229E67
:10082000CDE9004549B1426C4A60012393408B6099
:1008300002F0C9FE0023CBF840302B1EB9BF23F0D5
:100840000043019300233360019CB34BBCBF0122E2
:100850003260A3431AD1149A42F20F731360009AC4
:10086000C4F31303134300F04E85239B0BB9AB4B2A
:1008700023E0AA4B03930333239A1360039819B020
:10088000BDE8F08FA64B03930833F5E79DED007BA1
:100890000022002351EC170B8DED0E7B03F078FE48
:1008A000074660B1149A01231360239B002B00F0CC
:1008B00027859C4B239A1360013B0393DEE716AA1E
:1008C00017A99DED0E0B584603F068F9C4F30A56BC
:1008D0008046002E7FD00F9B1597C3F31303DDE9ED
:1008E0000E4543F07F5545F44015A6F2FF36002231
:1008F0008D4B2046294600F033FD81A3D3E9002328
:1009000000F0E6FE80A3D3E9002300F02BFD0446AF
:1009100030460D4600F072FE7DA3D3E9002300F0BF
:10092000D7FE02460B462046294600F01BFD044632
:100930000D4601F0DFF800228246002320462946BA
:1009400003F030FE48B1504600F058FE22462B46D8
:1009500003F01EFE08B90AF1FF3ABAF1160F59D892
:10096000724B03EBCA03D3E90023DDE90E0103F068
:1009700019FE002850D00AF1FF3A00231193169B6C
:100980009E1B731E079345BFC6F101030693002308
:1009900000234CBF07930693BAF1000F3EDB079B81
:1009A000CDF840A05344079300230993089B092BDB
:1009B00000F28D80052BC4BF043B0893089BA3F174
:1009C0000203CCBF00240124032B00F28B80DFE85C
:1009D00003F02F3C3A7CDDE916631E4406F23240F8
:1009E000202811DDC0F14000009B844006F2124037
:1009F00023FA00F0204300F0F1FD01230446A1F1A9
:100A0000F875013E159372E7009BC0F1200003FAD0
:100A100000F0F0E70123B1E71190B0E7069BA3EBEC
:100A20000A030693CAF10003099300231093BDE75C
:100A300000230C930D9B002B57DC01230493994654
:100A40001A460D920CE00123F3E700230C930D9B53
:100A5000534403F1010904934B46012BB8BF012312
:100A60000022CBF84420042202F114009842DBF863
:100A700044103ED9584602F081FDB9F10E0F0390A3
:100A8000CBF8400000F2D780002C00F0D480BAF1FF
:100A9000000F69DD254A0AF00F0302EBC30393ED53
:100AA000007B4FEA2A14E2068DED0A7B5AD5204BD3
:100AB000DDE90E01D3E9082300F034FFCDE90001A0
:100AC00004F00F0403261A4D41E00123BEE7012480
:100AD000002308930C944FF0FF33049399460022AF
:100AE0001223AEE701230C93F5E70D9B049399467F
:100AF000B6E70131CBF844105200B5E7AFF3008000
:100B000061436F63A787D23FB3C8608B288AC63F13
:100B1000FB799F501344D33F0000F07F5AD801085F
:100B20005ED8010877A401080000F83FB0930108DF
:100B3000A0940108E30708D5DDE90A01D5E90023FF
:100B400000F0C6FDCDE90A01013664100835002C1D
:100B5000F0D1DDE90A23DDE9000100F0E3FECDE993
:100B600000011AE00226AEE700F09F80CAF10004FF
:100B70009E4B9F4D04F00F0203EBC203D3E9002309
:100B8000DDE90E0100F0A4FDCDE9000124110023F0
:100B90000226002C7ED1002BE1D1119B002B00F00E
:100BA0008680DDE900450022924B2046294603F06D
:100BB000F9FC00287BD0B9F1000F78D0049B002B02
:100BC00035DD0AF1FF330A93204600228A4B29467D
:100BD00000F07EFDCDE90001049C0136304600F0B6
:100BE0000DFDDDE9002300F073FD0022834B00F0D2
:100BF000B9FB0646A1F15077002C5CD10022804B56
:100C0000DDE9000100F0ACFB32463B46CDE90001D6
:100C100003F0E6FC002840F08A82324607F10043E8
:100C2000DDE9000103F0BEFC002840F07E82DDE932
:100C30000E34CDE90034179B002BC0F24D81BAF180
:100C40000E0F00F34981694B03EBCA0393ED007B60
:100C50000D9B002B8DED047B80F2D680B9F1000F47
:100C600000F3D28040F060820022654B51EC170BFC
:100C700000F02EFDDDE9002303F0A8FC4C464E46B3
:100C8000002840F03982039D312305F8013B0AF129
:100C9000010A35E2E70705D5D5E9002300F018FD84
:100CA000013601236410083573E7022675E7CDF895
:100CB00028A04C4692E703994C4B03EBC4030C4429
:100CC0000C9953E90223002944D000204D4900F03B
:100CD00029FE32463B4600F043FB039D06460F4685
:100CE000DDE9000100F006FF129000F087FC0246EB
:100CF0000B46DDE9000100F033FB129B303305F8B1
:100D0000013B32463B46CDE9000103F04BFC002895
:100D100060D1DDE900230020364900F021FB324696
:100D20003B4603F03FFC002840F0B480A5423FF46E
:100D30007EAF0022304B3046394600F0C9FC00221D
:100D400006460F462C4BDDE9000100F0C1FCCDE961
:100D50000001C5E73046394600F0BAFCCDE9120182
:100D6000039E2546DDE9000100F0C4FE074600F0C1
:100D700045FC303702460B46DDE9000100F0F0FA91
:100D800006F8017BA642CDE900014FF0000226D112
:100D90001C4BDDE9120100F0E5FA02460B46DDE9E5
:100DA000000103F01DFC002874D1DDE912230020AE
:100DB000144900F0D5FA02460B46DDE9000103F0C4
:100DC000F1FB00283FF433AF15F8013C302B05F15F
:100DD000FF3202D0DDF828A04AE01546F4E7064BC2
:100DE00000F076FCCDE90001BCE700BFB09301083C
:100DF000A09401080000F03F0000244000001C40C7
:100E0000000014400000E03FDDE90067039DDDE9DC
:100E100004233046394600F085FD00F06BFE0446A1
:100E200000F0ECFBDDE9042300F052FC02460B4627
:100E30003046394604F1300600F092FA05F8016BAD
:100E4000039EAE1BB14502460B4638D100F08AFA2C
:100E5000DDE9042306460F4603F0C2FBC0B9DDE915
:100E600004233046394603F093FB08B1E1070FD461
:100E70004146584602F0A7FB0023149A2B700AF152
:100E800001031360239B002B3FF4F8AC1D60F5E4D5
:100E9000CDF828A015F8012C392A05F1FF3308D127
:100EA000039A9A4209D10A9A039901320A9230228E
:100EB0000A701A7801321A708CE71D46EAE70022A0
:100EC0009D4B00F005FC0022002306460F4603F070
:100ED0005FFB00289BD0CBE70C9A002A00F0CB8068
:100EE000089A012A00F3AE80159A002A00F0A68025
:100EF00003F23343099C069D069A1A440692079A08
:100F000001211A445846079202F02FFC0646002D94
:100F10000CDD079B002B09DDAB42069AA8BF2B46D0
:100F2000D21A0692079AED1AD31A0793099BF3B1C6
:100F30000C9B002B00F0A380002C10DD31462246D4
:100F4000584602F0ABFC424601460646584602F0BF
:100F500015FC41460746584602F035FBB846099B4A
:100F60001A1B04D04146584602F098FC80460121E5
:100F7000584602F0FAFB109B002B044640F3818098
:100F80001A460146584602F089FC089B012B04468C
:100F90007ADD0027236904EB8303186902F095FBCF
:100FA000C0F12000079B184410F01F0000F08B8058
:100FB000C0F12003042B40F38480C0F11C00069B89
:100FC00003440693079B034405440793069B002BA9
:100FD00005DD41461A46584602F0A0FC8046079BB4
:100FE000002B05DD21461A46584602F097FC0446C0
:100FF000119B002B69D02146404602F0E2FC0028FC
:1010000063DA002341460A22584602F0E5FA0C9BB7
:101010000AF1FF3A8046002B00F07C810023314624
:101020000A22584602F0D8FA049B002B064600F329
:101030008B80089B022B40F387804EE0169BC3F108
:10104000360357E7099B09F1FF34A342BFBF099B51
:101050000994E21A109BBBBF9B1810931C1B002421
:10106000B9F1000FB5BF069B069DA3EB09054B46E2
:10107000B8BF002340E7099C069D0C9E47E7099AEC
:1010800070E7089B012B18DC009BB3B9019BC3F3ED
:101090001303A3B9019B23F000473F0D3F0537B170
:1010A000069B01330693079B013307930127109B8F
:1010B000002B7FF46FAF012074E70027F7E7009F54
:1010C000F5E783D018461C3079E7B9F1000F35DC1D
:1010D000089B022B32DDCDF81090049B63B92146AA
:1010E0000522584602F078FA01460446404602F0CE
:1010F00068FC00283FF7C7AD0D9B039D6FEA030A0C
:1011000000272146584602F05EFA002E3FF4B0AEAA
:101110002FB1B74203D03946584602F054FA31464F
:10112000584602F050FAA3E600242646E4E7DDF82C
:1011300028A02646A7E500BF000024400C9BCDF860
:101140001090002B00F0ED80002D05DD31462A4681
:10115000584602F0E3FB0646002F56D07168584609
:1011600002F00CFA326902320546920006F10C01D7
:101170000C3003F0D4FB01222946584602F0CEFB86
:10118000039B03F10109DDE9032313440993009B49
:1011900003F0010337460793064609F1FF33214662
:1011A00040460093FFF7A8FA0346303304903946CF
:1011B00040460A9302F005FC324606902146584606
:1011C00002F019FCC2680A9B054602BB0146404674
:1011D00002F0F7FB0A9B0246294658460C920A93F6
:1011E00002F0F1F9089B0C9A43EA0201079B0B43BA
:1011F0004D460A9B0DD1392B27D0069A002A01DDD6
:10120000049B3133009A13707BE73046B8E7012224
:10121000E2E70699002904DB089801430798014397
:101220001ED1002AEEDD414601225846069302F007
:1012300075FB2146804602F0C4FB0028069B02DCB9
:10124000E0D1DA07DED5392BDAD1009A39231370D1
:1012500015F8013C392B05F1FF3247D00133D2E7B5
:10126000002A03DD392BF0D00133CBE7099A09F8C6
:10127000013C914521D0414600230A22584602F004
:10128000ABF9B74280464FF000034FF00A023946EF
:10129000584606D102F0A0F90746064609F10109B1
:1012A0007BE702F099F93146074600230A225846A7
:1012B00002F092F90646F1E700274146012258461E
:1012C000009302F02BFB2146804602F07AFB0028B7
:1012D000BEDC02D1009BDB07BAD415F8013C302BF1
:1012E00005F1FF327FF40DAF1546F6E7039B9342FD
:1012F00004D10AF1010A3123039A84E71546A7E7CE
:10130000134BFFF7DABA239B002B7FF4BBAA114BD8
:10131000FFF7D3BA049B002B03DC089B022B3FF79B
:10132000DCAE039D21464046FFF7E6F900F13003AD
:1013300005F8013B039A0499AA1A9142BCDD414683
:1013400000230A22584602F047F98046EAE700BF28
:1013500076A401085ED8010881F0004102E000BFD8
:1013600083F0004330B54FEA41044FEA430594EA65
:10137000050F08BF90EA020F1FBF54EA000C55EAA0
:10138000020C7FEA645C7FEA655C00F0E2804FEA71
:101390005454D4EB5555B8BF6D420CDD2C4480EA53
:1013A000020281EA030382EA000083EA010180EA83
:1013B000020281EA0303362D88BF30BD11F0004FD1
:1013C0004FEA01314FF4801C4CEA113102D0404207
:1013D00061EB410113F0004F4FEA03334CEA133342
:1013E00002D0524263EB430394EA050F00F0A7805A
:1013F000A4F10104D5F1200E0DDB02FA0EFC22FA55
:1014000005F2801841F1000103FA0EF2801843FA48
:1014100005F359410EE0A5F120050EF1200E012A39
:1014200003FA0EFC28BF4CF0020C43FA05F3C01877
:1014300051EBE37101F0004507D54FF0000EDCF1F0
:10144000000C7EEB00006EEB0101B1F5801F1BD399
:10145000B1F5001F0CD349085FEA30004FEA3C0C9D
:1014600004F101044FEA445212F5800F80F09A8093
:10147000BCF1004F08BF5FEA500C50F1000041EB97
:10148000045141EA050130BD5FEA4C0C404141EB9B
:10149000010111F4801FA4F10104E9D191F0000FC2
:1014A00004BF01460020B1FA81F308BF2033A3F145
:1014B0000B03B3F120020CDA0C3208DD02F1140C3C
:1014C000C2F10C0201FA0CF021FA02F10CE002F177
:1014D0001402D8BFC2F1200C01FA02F120FA0CFC70
:1014E000DCBF41EA0C019040E41AA2BF01EB0451B9
:1014F000294330BD6FEA04041F3C1CDA0C340EDCB7
:1015000004F11404C4F1200220FA04F001FA02F3F9
:1015100040EA030021FA04F345EA030130BDC4F1B7
:101520000C04C4F1200220FA02F001FA04F340EAAC
:101530000300294630BD21FA04F0294630BD94F05D
:10154000000F83F4801306BF81F480110134013D44
:101550004EE77FEA645C18BF7FEA655C29D094EAB5
:10156000050F08BF90EA020F05D054EA000C04BF33
:101570001946104630BD91EA030F1EBF002100201E
:1015800030BD5FEA545C05D14000494128BF41F0BD
:10159000004130BD14F580043CBF01F5801130BD21
:1015A00001F0004545F0FE4141F470014FF00000AC
:1015B00030BD7FEA645C1ABF194610467FEA655C5D
:1015C0001CBF0B46024650EA013406BF52EA0335FF
:1015D00091EA030F41F4002130BD00BF90F0000FED
:1015E00004BF0021704730B54FF4806404F1320429
:1015F0004FF000054FF0000150E700BF90F0000FE2
:1016000004BF0021704730B54FF4806404F1320408
:1016100010F0004548BF40424FF000013EE700BFD8
:1016200042004FEAE2014FEA31014FEA02701FBF68
:1016300012F07F4393F07F4F81F06051704732F09A
:101640007F4208BF704793F07F4F04BF41F40021F1
:10165000704730B54FF4607401F0004521F000414F
:101660001CE700BF50EA010208BF704730B54FF0D9
:1016700000050AE050EA010208BF704730B511F0DA
:10168000004502D5404261EB41014FF4806404F112
:1016900032045FEA915C3FF4D8AE4FF003025FEA98
:1016A000DC0C18BF03325FEADC0C18BF033202EB1C
:1016B000DC02C2F1200300FA03FC20FA02F001FA76
:1016C00003FE40EA0E0021FA02F11444BDE600BF19
:1016D00070B54FF0FF0C4CF4E06C1CEA11541DBFC8
:1016E0001CEA135594EA0C0F95EA0C0F00F0DEF893
:1016F0002C4481EA030621EA4C5123EA4C5350EA78
:10170000013518BF52EA033541F4801143F48013C8
:1017100038D0A0FB02CE4FF00005E1FB02E506F059
:101720000042E0FB03E54FF00006E1FB03569CF0AE
:10173000000F18BF4EF0010EA4F1FF04B6F5007FB4
:1017400064F5407404D25FEA4E0E6D4146EB060626
:1017500042EAC62141EA55514FEAC52040EA5E50AF
:101760004FEACE2EB4F1FD0C88BFBCF5E06F1ED859
:10177000BEF1004F08BF5FEA500E50F1000041EB90
:10178000045170BD06F0004646EA010140EA02003D
:1017900081EA0301B4EB5C04C2BFD4EB0C0541EA5F
:1017A000045170BD41F480114FF0000E013C00F374
:1017B000AB8014F1360FDEBF002001F0004170BD98
:1017C000C4F10004203C35DA0C341BDC04F11404B1
:1017D000C4F1200500FA05F320FA04F001FA05F23D
:1017E00040EA020001F0004221F0004110EBD3700A
:1017F00021FA04F642EB06015EEA430E08BF20EA36
:10180000D37070BDC4F10C04C4F1200500FA04F3D8
:1018100020FA05F001FA04F240EA020001F000416A
:1018200010EBD37041F100015EEA430E08BF20EADD
:10183000D37070BDC4F1200500FA05F24EEA020E25
:1018400020FA04F301FA05F243EA020321FA04F054
:1018500001F0004121FA04F220EA020000EBD3700B
:101860005EEA430E08BF20EAD37070BD94F0000F0B
:101870000FD101F00046400041EB010111F4801F3F
:1018800008BF013CF7D041EA060195F0000F18BFF0
:10189000704703F00046520043EB030313F4801F2C
:1018A00008BF013DF7D043EA0603704794EA0C0FE6
:1018B0000CEA135518BF95EA0C0F0CD050EA4106FC
:1018C00018BF52EA4306D1D181EA030101F0004179
:1018D0004FF0000070BD50EA410606BF10461946A1
:1018E00052EA430619D094EA0C0F02D150EA0136AD
:1018F00013D195EA0C0F05D152EA03361CBF1046EE
:1019000019460AD181EA030101F0004141F0FE418C
:1019100041F470014FF0000070BD41F0FE4141F410
:10192000780170BD70B54FF0FF0C4CF4E06C1CEA10
:1019300011541DBF1CEA135594EA0C0F95EA0C0FC5
:1019400000F0A7F8A4EB050481EA030E52EA033580
:101950004FEA013100F088804FEA03334FF08055A1
:1019600045EA131343EA12634FEA022245EA1115CE
:1019700045EA10654FEA00260EF000419D4208BF7F
:10198000964244F1FD0404F5407402D25B084FEA2C
:101990003202B61A65EB03055B084FEA32024FF4D8
:1019A00080104FF4002CB6EB020E75EB030E22BF35
:1019B000B61A754640EA0C005B084FEA3202B6EBF5
:1019C000020E75EB030E22BFB61A754640EA5C00A4
:1019D0005B084FEA3202B6EB020E75EB030E22BF34
:1019E000B61A754640EA9C005B084FEA3202B6EB35
:1019F000020E75EB030E22BFB61A754640EADC00F4
:101A000055EA060E18D04FEA051545EA16754FEA55
:101A100006164FEAC30343EA52734FEAC2025FEA73
:101A20001C1CC0D111F4801F0BD141EA00014FF002
:101A300000004FF0004CB6E711F4801F04BF0143D3
:101A40000020B4F1FD0C88BFBCF5E06F3FF6AFAEEF
:101A5000B5EB030C04BFB6EB020C5FEA500C50F17F
:101A6000000041EB045170BD0EF0004E4EEA113102
:101A700014EB5C04C2BFD4EB0C0541EA045170BD09
:101A800041F480114FF0000E013C90E645EA060E4D
:101A90008DE60CEA135594EA0C0F08BF95EA0C0F7B
:101AA0003FF43BAF94EA0C0F0AD150EA01347FF4C3
:101AB00034AF95EA0C0F7FF425AF104619462CE79A
:101AC00095EA0C0F06D152EA03353FF4FDAE1046FD
:101AD000194622E750EA410618BF52EA43067FF44E
:101AE000C5AE50EA41047FF40DAF52EA43057FF4DE
:101AF000EBAE12E74FEA410212F5001215D211D5F2
:101B00006FF47873B3EB625212D94FEAC12343F0FA
:101B1000004343EA505311F0004F23FA02F018BF7C
:101B2000404270474FF00000704750EA013005D145
:101B300011F0004008BF6FF0004070474FF0000008
:101B4000704700BF4FEA4102B2F1E04324BFB3F552
:101B5000001CDCF1FE5C0DD901F0004C4FEAC00224
:101B60004CEA5070B2F1004F40EB830008BF20F008
:101B70000100704711F0804F21D113F13872BCBFC2
:101B800001F00040704741F480114FEA5252C2F117
:101B90001802C2F1200C10FA0CF320FA02F018BF60
:101BA00040F001004FEAC1234FEAD32303FA0CFCB3
:101BB00040EA0C0023FA02F34FEA4303CCE77FEA42
:101BC000625307D150EA01331EBF4FF0FE4040F48C
:101BD0004000704701F0004040F0FE4040F400003B
:101BE000704700BF7BB972B90029BEBF00204FF01B
:101BF000004106E008BF00281CBF6FF000414FF015
:101C0000FF3000F057B8ADF1080C6DE904CE0029A3
:101C100009DB002B1ADB02F003FDDDF804E0DDE94F
:101C2000022304B07047404261EB4101002B1BDBF3
:101C300002F0F6FCDDF804E0DDE9022304B04042E6
:101C400061EB4101524263EB43037047524263EB45
:101C5000430302F0E5FCDDF804E0DDE9022304B013
:101C6000404261EB41017047524263EB430302F093
:101C7000D7FCDDF804E0DDE9022304B0524263EB57
:101C80004303704753B94AB9002908BF00281CBF55
:101C90004FF0FF314FF0FF3000F00CB8ADF1080C01
:101CA0006DE904CE02F0BCFCDDF804E0DDE90223BE
:101CB00004B07047704700BFF0B52DED028B264E83
:101CC0008BB055EC104BFEF7B3FA96F90030B0EE3E
:101CD000408AF0EE608A013336D022462B462046F9
:101CE000294602F087FC074670BB45EC104B02F01A
:101CF000F1FD0022194B51EC100B02F071FC18B3EE
:101D0000012300931648174B01930897CDE904452A
:101D1000CDE90245FEF7E8FC96F90030022B8DED87
:101D2000060B04D113F0F2FD2123036004E06846A2
:101D300002F0D9FD0028F5D0089B1BB113F0E6FD99
:101D4000089B03609DED068BB0EE480AF0EE680A32
:101D50000BB0BDEC028BF0BD648400200000F03FAE
:101D6000DAC80108A7D70108F0B52DED028B8BB0BA
:101D700055EC104B00F04EF8244BB0EE408AF0EEDC
:101D8000608A93F90060731C37D022462B462046A8
:101D9000294602F02FFC074678BB0022002320468C
:101DA000294602F0FFFB40B301230093184B019337
:101DB0000897CDE90445CDE9024576B1002200231C
:101DC00010461946FFF7AEFD022ECDE9060107D1F8
:101DD00013F09CFD2123036007E000200021F3E7BE
:101DE000684602F080FD0028F2D0089B1BB113F07A
:101DF0008DFD089B03609DED068BB0EE480AF0EE6A
:101E0000680A0BB0BDEC028BF0BD00BF64840020FB
:101E1000ACD701082DE9F04155EC104B544EAE43C0
:101E200029462A4610EE100A234610D110EE102A39
:101E30002B46FFF74DFC02460B4620462946FFF78E
:101E400091FA04460D4645EC104BBDE8F081002D9B
:101E50000FDC25F000463043F5D055B110EE102AC6
:101E60002B462046FFF77CFA02460B46FFF75AFD49
:101E7000E7E7091575D0A1F2FF31C2F31302CE07CF
:101E800042F4801042BFDA0F5B0002EB40000024F6
:101E9000DA0F02EB400249105B004FF0160EA44629
:101EA0004FF400100CEB00059542DEBF521B05EB12
:101EB000000C24185200BEF1010E02EBD3724FEA5F
:101EC00050004FEA4303EDD1704620274FF0004504
:101ED000624505EB0E0602DC13D19E4211D8002E9E
:101EE00006EB050E42DABEF1000F3FDB0CF10108F4
:101EF000A2EB0C029E4288BF02F1FF329B1B2844DA
:101F0000C4465200013F02EBD3724FEA55054FEA37
:101F10004303DDD1134306D0451C13BF0130013408
:101F2000384620F0010063104008E20703F17F53B8
:101F300003F5001348BF40F0004003EB0155044691
:101F400081E7DA0A15385B05002AFAD0D7020AD5EC
:101F5000C1F1200423FA04F44D1E8B402243411B9F
:101F600089E70846F0E752000131EFE7E046BFE7B6
:101F70000000F07F1FB51C46094B1B680546D8685A
:101F800052B1084B0091CDE9013207492B46224658
:101F900000F021F802F084FD044B1A46F2E700BF7E
:101FA00068800020B1D70108BED70108DAC801084F
:101FB00008B513460022FFF7DDFF00BF0CB407B5DC
:101FC00004AB53F8042B019300F04EF803B05DF816
:101FD00004EB02B070470EB403B5014603AB0648EC
:101FE00053F8042B0068019300F03EF802B05DF84E
:101FF00004EB03B0704700BF688000209368013B8A
:10200000002B10B4936008DA9469A34201DB0A291B
:1020100003D15DF8044B00F0D3BE1368581C106068
:10202000197008465DF8044B7047F8B506460F4630
:102030001446D518AC4201D1002007E03A4614F806
:10204000011B3046FFF7DAFF431CF3D1F8BD38B56A
:1020500093681446002513B95360184638BD01F043
:10206000C7F8C4E90155F9E72DE9F04F0E469DB0D8
:1020700014461D46074618B1836B0BB901F05AF898
:10208000B389180756D53369002B53D00023099321
:1020900020238DF82930DFF8AC91039530238DF89B
:1020A0002A304FF0010A23461D4613F8012B0AB1CE
:1020B000252AF9D1B5EB040B0BD05B4622463146FD
:1020C0003846FFF7B2FF013000F0AE80099B5B4459
:1020D00009932B78002B00F0A78000234FF0FF32EC
:1020E000CDE905230135049307938DF853301A93F6
:1020F0002C46052214F8011B5248FEF749F8049BB0
:1021000018BBD90644BF20228DF853201A0744BFBC
:102110002B228DF853202A782A2A1ED0079A2C4683
:1021200000200A25214611F8013B303B092B56D9E6
:10213000C8B91FE03146384600F088FE0028A5D017
:102140004FF0FF301DB0BDE8F08FA0EB09000AFA98
:1021500000F0184304902546CAE7039A111D12683F
:102160000391002A01DB079204E0524243F002038C
:102170000792049323782E2B0CD163782A2B33D12A
:10218000039B1A1D1B680392002BB8BF4FF0FF334F
:10219000023405932C4D217803222846FDF7F8FFE1
:1021A00038B14023401B03FA00F0049B0343013481
:1021B000049314F8011B25488DF828100622FDF71A
:1021C000E7FF002835D0224B13BB039B073323F0D6
:1021D000070308330393099B4344099363E705FB13
:1021E000023201200C469DE7002301340593194675
:1021F0000A25204610F8012B303A092A03D9002B72
:10220000C8D00591C6E705FB012101230446F0E78C
:1022100003AB009332460F4B04A9384600F0B5F8E3
:10222000B0F1FF3F8046D6D1B3895B0688D40998C8
:1022300088E703AB00933246064B04A9384600F00A
:1022400044FBEDE7EDD70108F3D70108F7D7010804
:102250008B2300082B20000813460A46014602483B
:102260000068FFF701BF00BF688000202DE9FF472D
:1022700055EC104B002D0E4691461946DDF830A066
:102280004FF0000203DA05F100431D462D220D9F99
:102290000A7027F02007462F04D0452F00D10136C1
:1022A000022100E0032103AB019302AB009332460D
:1022B000534645EC104BFEF7A8FA472F804602D153
:1022C00019F0010F22D0462F08EB060911D198F81A
:1022D0000030302B0AD1002200232046294602F08C
:1022E00057F918B9C6F10106CAF80060DAF80030EB
:1022F0009944002200232046294602F049F908B1FA
:10230000CDF80C903022039B4B4508D3039B0E9ACB
:10231000A3EB08034046136004B0BDE8F087591CE6
:1023200003911A70EFE7F7B50029BABF49422D2390
:102330002B2309290270437021DD0DF107031F468D
:102340000A2691FBF6F206FB12143034632903F1DE
:10235000FF3503F8014C0ADC303205F8012C023B52
:10236000821CBB42144605D3201A03B0F0BD2B4695
:102370001146E6E713F8011B02F8011BF1E73023D1
:1023800019448370041DC170EEE72DE9F04F8DB044
:102390000C46DDF8588016461F46054601F07AF8CF
:1023A00003680693184602F023FB00230A93D8F82B
:1023B00000300790073323F0070303F1080294F875
:1023C00018A0D4F800B0C8F80020D3E90023C4E96D
:1023D000122394ED127B8DED047BDDE9048323F061
:1023E00000494FF0FF32A74B4046494602F002F940
:1023F00070BB4FF0FF32A34B4046494602F0DCF879
:1024000030BB00220023DDE9040102F0CBF810B15B
:102410002D2384F843309C4A9C4BBAF1470F94BF5C
:102420009046984603232BF00402236122604FF06C
:102430000009009733460BAA2146284600F0D0F940
:10244000013040F08C804FF0FF300DB0BDE8F08FD0
:10245000DDE904231046194602F0CCF840B1059B93
:102460008B4A002BBCBF2D2384F84330894BD4E723
:1024700063685A1C0AF0DF093ED10623636000231B
:1024800003930AAB4BF48062CDE901A309AB00933F
:10249000616822600DF123039DED040B2846FFF7D0
:1024A000E5FEB9F1470F8046099908D1C81C02DB47
:1024B0006368994241DDAAF1020A5FFA8AFABAF129
:1024C000650F20D80139524604F150000991FFF7F9
:1024D0002AFF0A9A1318012A8146236102DC226826
:1024E000D20701D5013323619DF82330002BA0D002
:1024F0002D2384F843309CE7B9F1470FBFD1002B5F
:10250000BDD10123BAE7BAF1660F18D1002963687B
:102510000BDD216113B92268D00702D501330B44CA
:102520002361A1654FF00009DEE713B92268D207E5
:1025300001D50233F4E70123F2E74FF0670A0A9B63
:10254000994205DB23682161D807EAD54B1CE7E7F0
:102550000029D4BFC1F1020201221344E0E723683D
:102560005A0507D42369424631462846B847013008
:102570002BD168E7BAF1650F40F2DD80002200231D
:10258000D4E9120102F004F8002833D00123424AB2
:1025900031462846B84701303FF455AFDDE90923FD
:1025A0009A4202DB2368D8070FD5DDE906233146BE
:1025B0002846B84701303FF446AF4FF0000804F119
:1025C0001A090A9B013B434509DC23689B0700F17C
:1025D0000281E0680B9B9842B8BF184635E701239B
:1025E0004A4631462846B84701303FF42CAF08F13F
:1025F0000108E6E7099B002B2BDC0123264A314624
:102600002846B84701303FF41EAFDDE909231343E4
:1026100002D12368D907D8D5DDE9062331462846FB
:10262000B84701303FF40FAF4FF0000904F11A0A28
:10263000099B5B424B4501DC0A9B94E70123524610
:1026400031462846B84701303FF4FDAE09F1010993
:10265000EEE70A9AA36D9A42A8BF1A46002A91464D
:1026600007DD1346314642462846B84701303FF45D
:10267000EAAE04F11A034FF0000B29EAE97904935A
:1026800016E000BFFFFFEF7FFED701085AA7010841
:1026900002D8010806D8010876A401080123049A8B
:1026A00031462846B84701303FF4CDAE0BF1010B5F
:1026B000D4F858A0AAEB09035B45EFDCDDE9092358
:1026C0009A421BDB2368DA0718D4DDE90923924517
:1026D0001CDBA3EB0A09B9F1000F08DD4B4608EB40
:1026E0000A0231462846B84701303FF4ACAE4FF0FD
:1026F000000829EAE97904F11A0A14E0DDE9062361
:1027000031462846B8470130DFD19CE6A3EB0209E9
:10271000E1E70123524631462846B84701303FF4ED
:1027200092AE08F10108DDE909239B1AA3EB090326
:102730004345EEDC49E70A9A012A01DCDB0737D57D
:102740000123424631462846B84701303FF47BAE6C
:10275000DDE9062331462846B84701303FF473AE21
:1027600000220023D4E9120101F012FFD8B90A9B1C
:1027700008F10102013B31462846B84701300ED12D
:1027800061E60123524631462846B84701303FF4FE
:102790005AAE08F101080A9B013B4345F1DC4B4668
:1027A00004F15002E0E64FF0000804F11A0AF2E7E3
:1027B00001234246DFE701234A4631462846B8470F
:1027C00001303FF440AE08F10108E3680B9A9B1A10
:1027D0004345F0DCFDE64FF0000804F11909F4E789
:1027E0002DE9F04791461F468A680B69DDF8208085
:1027F0009342B8BF1346C9F8003091F8432006460B
:102800000C4612B10133C9F800302368990642BF63
:10281000D9F800300233C9F80030256815F00605F4
:1028200007D104F1190AE368D9F800209B1AAB42DA
:1028300028DC94F843302268003318BF0123920645
:102840002DD404F1430239463046C047013020D030
:102850002368E568D9F8002003F00603042B08BFBD
:10286000AD1AA36822690CBF25EAE57500259342DD
:10287000C4BF9B1AED184FF000091A344D451AD108
:10288000002008E00123524639463046C047013057
:1028900003D14FF0FF30BDE8F0870135C3E7E11801
:1028A0005A1C302081F84300224494F8451082F8E5
:1028B00043100233C5E70123224639463046C0475C
:1028C0000130E6D009F10109D8E72DE9F0430646C9
:1028D0000C4601F14300097E85B06E2998461746E3
:1028E0000C9B00F0BA8024D8632939D00AD800297B
:1028F00000F0C380582900F0918004F1420584F86B
:10290000421035E0642901D06929F6D125681A689A
:1029100015F0800F02F104012CD012681960002A12
:1029200003DA2D23524284F84330DFF8C0C10A2372
:102930003FE0732900F0A58008D86F2921D07029C5
:10294000DBD1226842F02002226003E0752918D012
:102950007829D2D1782284F84520DFF894C161E04B
:102960001A68111D1960136884F8423004F1420599
:10297000012393E01268196015F0400F18BF12B2DE
:10298000CDE7D4F800C01A681CF0800F02F10405EE
:102990001D6001D0126803E01CF0400FFAD01288CD
:1029A000DFF848C16F290CBF08230A23002184F8EF
:1029B00043106568A560002DA2BF216821F00401C5
:1029C00021600AB9002D46D00546B2FBF3F103FBA6
:1029D000112E93421CF80EE005F801ED39D9082BB1
:1029E0000BD12368DA0708D5236962689A42DEBFF3
:1029F000302305F8013C05F1FF35401B2061CDF87F
:102A000000803B4603AA21463046FFF7E9FE01302D
:102A100049D14FF0FF3005B0BDE8F083DFF8CCC0FE
:102A200084F845101D68216855F8042B1D600D06BB
:102A30000BD5CD0744BF41F0200121601AB92368AE
:102A400023F0200323601023B0E74B0648BF92B267
:102A5000EFE70A46B9E70546C1E71A68D4F800C0AF
:102A60006169151D1D601CF0800F136801D019608D
:102A700003E01CF0400FFAD01980002323610546C3
:102A8000BDE71A68111D19601568626800212846A3
:102A9000FDF77EFB08B1401B606063682361002383
:102AA00084F84330ABE723692A4639463046C047AD
:102AB0000130AED023689B0713D4E068039B984293
:102AC000B8BF1846A7E701234A4639463046C047F3
:102AD00001309ED00135E368039A9B1AAB42F2DCC9
:102AE000EBE7002504F11909F5E700BF0AD8010852
:102AF0001BD801080EB403B503AB816853F8042B4F
:102B00000193FFF7B1FA02B05DF804EB03B0704730
:102B10000FB407B5064904AB086853F8042B816865
:102B20000193FFF7A1FA03B05DF804EB04B070471E
:102B30006880002008B430B5141E9AB0054608DA43
:102B40008B2303604FF0FF301AB0BDE8304001B076
:102B500070474FF40273ADF8103014BF04F1FF3327
:102B60002346039306934FF6FF7301910591ADF849
:102B700012301D9A1EAB01A9009301F060FA431CAC
:102B8000BCBF8B232B60002CDED0019B00221A706F
:102B9000DAE70CB430B5174B0C1E9BB01D6808DA91
:102BA0008B232B604FF0FF301BB0BDE8304002B0EC
:102BB00070474FF40273ADF8103014BF04F1FF33C7
:102BC0002346039306934FF6FF7301900590ADF8EB
:102BD00012301E9A1FAB01A92846009301F02FFA6C
:102BE000431CBCBF8B232B60002CDDD0019B00223B
:102BF0001A70D9E7688000202DE9F047394F8646E2
:102C00000846054615F8014BE65D16F0080634D176
:102C10002D2C34D12C784FF00108851C002B5CD072
:102C2000102B09D1302C07D1287800F0DF0058286C
:102C30004ED16C7810230235B8F1000F14BF4FF05D
:102C4000004C6FF0004C0027BCFBF3F9384603FB47
:102C500019CAA4F13006092E18D83446A34224DD3F
:102C60007E1C07D081451DD301D1A2451ADB00FB94
:102C70000340012715F8014BEBE72846C1E72B2C51
:102C800008BF2C78B04608BF851CC7E7A4F14106F1
:102C9000192E01D8373CE1E7A4F16106192E04D8BA
:102CA000573CDBE74FF0FF37E4E77B1C06D12223DC
:102CB000CEF80030604642B9BDE8F087B8F1000FA9
:102CC00000D04042002AF7D007B1691E1160F3E737
:102CD0003024002BB0D10823AEE7302CA4D00A2337
:102CE000AAE700BF1395010886E713460A46014686
:102CF0000148006880E700BF6880002013460A464C
:102D000001460148006877E76880002030B5141E4E
:102D100005469BB0184605DA8B232B604FF0FF3039
:102D20001BB030BD4FF40273ADF8103014BF04F186
:102D3000FF332346039306934FF6FF7301910591EA
:102D4000ADF8123002461E9B01A9284601F077F922
:102D5000431CBCBF8B232B60002CE1D0019B0022C5
:102D60001A70DDE707B5009313460A46014603488B
:102D70000068FFF7CBFF03B05DF804FB688000201C
:102D800000B59BB0019105916FF000410691039150
:102D90000549049101A901F052F9019B00221A7022
:102DA0001BB05DF804FB00BF0802FFFF13460A4694
:102DB000014602480068FFF7E3BF00BF68800020BB
:102DC000F8B50D461446064618B1836B0BB900F0F2
:102DD000B1F9A369A360A3891A0725D523691BB399
:102DE00023692068C01A6369EDB283422F4604DC70
:102DF0002146304600F034F9E0B9A368013BA360F6
:102E000023685A1C22601D7063690130834204D01C
:102E1000A389DB0706D50A2D04D12146304600F0F0
:102E20001FF938B93846F8BD2146304600F00EF893
:102E30000028D5D04FF0FF37F4E7034B0A46014690
:102E40001868FFF7BDBF00BF6880002038B52A4B67
:102E5000054618680C4618B1836B0BB900F06AF987
:102E6000B4F90C309AB2110722D4D00607D4092243
:102E70002A6043F04003A3814FF0FF3034E0510754
:102E800012D5216B41B104F14003994202D028468A
:102E900000F05EFF00232363A38923F02403A381B2
:102EA0000023636023692360A38943F00803A3819F
:102EB00023694BB9A38903F42073B3F5007F03D0D2
:102EC0002146284600F019FBA28912F001030CD01C
:102ED0000023A36063695B42A361236953B9B4F91A
:102EE0000C3013F08000C4D138BD920758BF63691D
:102EF000A360F2E70020F7E76880002000B5104BE0
:102F00008DB06A4603F128061546186859681446BC
:102F100003C40833B3422246F7D118689B88A380C4
:102F20002060284601F064FD29460246022012F086
:102F3000D9FC062001F009FA7F2007F083FA00BFD0
:102F40002CD80108B1F90C2093B22DE9F0410546C7
:102F500018070C465FD44B6842F40062002B8A814C
:102F600005DCCB6B002B02DC0020BDE8F081A66AFB
:102F7000002EF9D0002312F480522F682B6036D037
:102F8000206DA3895A0705D56368C01A236B0BB15E
:102F9000E36BC01A00230246A66AE1692846B047DF
:102FA000431CA38906D129681D2930D82B4ACA4061
:102FB000D6072CD523F400631BB200226260D9042B
:102FC0002269A381226004D5421C01D12B6803B978
:102FD0002065216B2F600029C6D004F1400399427F
:102FE00002D0284600F0B4FE00202063BDE7E1696E
:102FF00001232846B047411CC3D12B68002BC0D009
:103000001D2B01D0162B01D12F60ADE7A38943F012
:103010004003A381A9E70F69002FA5D09B070E6885
:1030200008BF4B690F6018BF0023A6EB07088B6031
:10303000B8F1000F98DD43463A46E169666A2846D2
:10304000B047002806DCA38943F04003A3814FF07A
:10305000FF308AE70744A8EB0008E9E701004020B9
:1030600038B50D46044618B1836B0BB900F062F811
:10307000B5F90C0028B129462046BDE83840FFF7D5
:1030800061BF38BD014620B9044B0549186801F0FD
:103090002ABD044B1868FFF7E3BF00BFF094010896
:1030A0006130000868800020002310B50446C0E9A4
:1030B0000033836081810366C281C0E90433836188
:1030C00019460822583001F052FC054B2362054B8B
:1030D0006362054BA362054BE461E36210BD00BF70
:1030E0008B4B0008B14B0008E94B00080D4C000861
:1030F000014901F0F8BC00BF6130000870B54A1EFC
:10310000642555430E4605F1700100F06FFE04463C
:1031100040B10021C0E900160C30A06005F1640246
:1031200001F025FC204670BD014B1868FFF7E0BF99
:10313000F0940108826B10B50446D2B90D4BC363FD
:103140000323C0F8503100F5AC73C0F85431C0F817
:103150004C2104214068FFF7A7FF01220921A06844
:10316000FFF7A2FF02221221E068FFF79DFF012373
:10317000A36310BDF1300008F8B51B4B1E68B36B9C
:10318000074613B93046FFF7D5FF06F5A676D6E910
:103190000134013B03D53368DBB13668F7E7B4F996
:1031A0000C50A5B9114B2566C4E90055A560C4E9CA
:1031B0000335C4E905550822294604F1580001F0F9
:1031C000D6FBC4E90C55C4E911552046F8BD64345A
:1031D000DFE704213846FFF791FF044630600028FE
:1031E000DBD10C233B60F0E7F09401080100FFFF06
:1031F00093682DE9F74F07460C4690461BB900200F
:1032000003B0BDE8F08F8B89180750D50B69002BF0
:103210004DD0A389D8F8006013F002096CD113F0E7
:10322000010300F09C804846CA46CB46BBF1000F24
:1032300000F0068150B95A460A215046FCF7A8FF13
:10324000002800F002810130A0EB0A092068216902
:103250006269D9454B4628BF5B46884240F2F880F8
:10326000A5681544AB4240F3F38051462A4601F06D
:1032700064FB23682B44236021463846FFF7F0FEA9
:10328000002867D1B9EB050940F0FC80214638469B
:10329000FFF7E6FE00285DD1D8F80830AA44ABEB72
:1032A000050B5D1BC8F80850002DBFD1A7E72146CC
:1032B0003846FFF7CBFD0028ABD04FF0FF309FE73B
:1032C000D6E900A90836B9F1000FF9D0D9454B4627
:1032D000524628BF5B46E169656A3846A847002820
:1032E00038DDD8F808308244A9EB0009181AC8F86C
:1032F00008000028E7D182E74FF0000AD146DFF846
:103300008CB1E0E7D6E9009A0836BAF1000FF9D09F
:10331000A289A3682068910564D5534536D812F474
:10332000906F33D021696569A0EB010B05EB450572
:1033300005EBD5750BF1010353446D109D4238BF69
:103340001D4653053ED52946384600F04FFD48B985
:103350000C233B60A38943F04003A381ADE799466A
:103360009A46D2E75A462169019001F0D8FAA2891B
:10337000019B22F4906242F08002A2812361656188
:103380005B44A5EB0B052360A5605346534528BF5E
:1033900053461A4649462068019301F0CEFAA268C6
:1033A000019BD21AA2602268134455462360D8F8C4
:1033B0000830A944AAEB050A5D1BC8F80850002D87
:1033C000A3D11CE72A46384601F0B9FB0346002882
:1033D000D4D12169384600F0BBFCA38923F08003D7
:1033E000A381B5E72269824202D36269524516D9A8
:1033F000534528BF53461A4649461D4601F09DFADB
:10340000A36822685B1B2A44A3602260002BCED1F4
:1034100021463846FFF724FE0028C8D09AE71A4B09
:10342000656AE1699A4594BF53466FF00043384698
:1034300093FBF2F353434A46A847051EB7DC89E7DE
:10344000D6E900AB00200836F0E60BF10109FDE6F5
:103450009A4209DC656AE169134638465246A84734
:10346000051E3FF70FAF75E71A465146019301F06D
:1034700064FA019BA268D21AA26022681A442260F0
:103480001D46FFE6012007E7FEFFFF7F00FCFF7FF0
:10349000F030704700487047E883002000487047CC
:1034A000E883002070B50E46B1F90E10002996B0E1
:1034B00014461D4609DAB389002213F080002A6001
:1034C00016D14FF48063236015E06A4600F090FF48
:1034D0000028F0DB019A02F47042A2F500535A4230
:1034E0005A414FF480632A604FF40060236002E089
:1034F00040232360104616B070BD8B8973B59D07BD
:1035000006460C4607D504F14303236023610123DB
:10351000636102B070BD01AB6A46FFF7C3FF00995B
:103520000546304600F062FC48B9B4F90C309A0503
:10353000EFD423F0030343F00203A381E3E70E4B30
:10354000F363A389206043F08003A381009B636140
:10355000019B20615BB1B4F90E10304600F05AFFB8
:1035600028B1A38923F0030343F00103A381A389B6
:103570001D43A581CDE700BFF1300008C36C70B5D5
:1035800005460C467BB1EB6C53F82400A0B9012131
:1035900001FA04F6721D9200284601F0C2FA48B101
:1035A000C0E901460BE02122042101F0BAFAE864E7
:1035B0000028E8D1002070BD026843F824200023D1
:1035C000C0E90333F7E731B1C36C4A6853F822000E
:1035D000086043F8221070472DE9F0410D691F463D
:1035E00006460C4601F1140C0023DCF8000081B201
:1035F00002FB01710F0C000C02FB007089B2013359
:1036000001EB00419D424FEA10474CF8041BECDCF3
:10361000D7B1A368AB4212DC616830460131FFF7D5
:10362000ADFF2269023204F10C01804692000C3099
:1036300001F075F921463046FFF7C5FF444604EB1B
:10364000850301355F6125612046BDE8F0812DE9E4
:10365000F8430C4615461F4609220833064693FBDD
:10366000F2F3002101229A4220DB3046FFF786FF69
:10367000089B4361092D4FF00103036119DD04F13B
:103680000909C8462C4418F8013B0146303B0A2280
:103690003046FFF7A1FFA045F5D1A5F108044C4441
:1036A0002D1B6319BB4207DBBDE8F88352000131D3
:1036B000D9E70A340925F3E714F8013B0146303B0A
:1036C0000A223046FFF788FFEBE7020C120403469C
:1036D000CAB90304102013F07F4F04BF1B02083047
:1036E00013F0704F04BF1B01043013F0404F04BFB0
:1036F0009B000230002B05DB13F0804F00F101002E
:1037000008BF202070470020E5E7036813F0070298
:1037100001460BD0DA0724D4980749BF5B089B0801
:1037200001200B605CBF0B600220704798B2B0B9FB
:103730001B0C102013F0FF0F04BF1B0A08301A07E0
:1037400004BF1B0904309A0704BF9B080230DA0744
:1037500003D45B0800F1010005D00B6070471046F0
:10376000E8E7002070472020704710B50C46012183
:10377000FFF704FF01224461026110BD2DE9F74FFC
:1037800090460A69D8F810309A42B8BF0B460C46EA
:10379000BCBF444698462769D8F81090A368616872
:1037A00007EB0906B342B8BF0131FFF7E7FE00F1AE
:1037B000140505EB860E2B460022734516D304F143
:1037C000140308F1140203EB870702EB890300934B
:1037D000009B019293420CD8002E03DD5EF8043D5D
:1037E000002B59D0066103B0BDE8F08F43F8042BDD
:1037F000E3E7B2F800A0BAF1000F23D004F11409F6
:10380000AC464FF0000859F8041BDCF800B08BB24E
:103810001FFA8BFB0AFB03B34FEA114BDCF80010D5
:1038200043444FEA11480AFB0B8101EB13419BB261
:1038300043EA01434F454FEA11484CF8043BE2D8B4
:10384000CCF80080019BB3F802900432B9F1000F6C
:1038500020D02B6804F11408AC464FF0000AB8F8E9
:103860000010BCF802B009FB01B18A449BB243EAE4
:103870000A434CF8043B58F8043BBCF800101B0CFE
:1038800009FB031303EB1A4347454FEA134AE6D8F3
:10389000CCF8003004359BE7013E9DE72DE9F84365
:1038A000154612F0030206460F4607D0013A1A4C9D
:1038B000002354F82220FFF78FFE0746AD1027D0D3
:1038C000B46C44B940F271213046FFF74EFF00233B
:1038D000B064044603604FF00008EB070AD5394690
:1038E00022463046FFF74AFF394681463046FFF709
:1038F0006AFE4F466D100BD0206838B9224621462B
:103900003046FFF73BFF2060C0F800800446E4E744
:103910003846BDE8F88300BFA09301082DE9F047C1
:103920000C464FEA621A236949680AEB0309A36847
:103930000746164609F10105AB4233DB3846FFF76F
:103940001DFE0023804600F1140100F1100218460C
:1039500053452ADB20692AEAEA7A04F1140316F0B7
:103960001F0201EB8A0103EB800C22D0C2F1200E72
:1039700000201E689640304341F8040B53F8040BB6
:103980009C4520FA0EF0F4D8086008B109F1020550
:10399000013D3846C8F810502146FFF714FE404656
:1039A000BDE8F08701315B00C6E742F8040F013340
:1039B000CEE7043953F8042B41F8042F9C45F9D87D
:1039C000E6E703690A699B1A30B50CD192001430FE
:1039D00014318418114454F8045D51F8042D9542B3
:1039E00003D005D30123184630BDA042F3D3FAE734
:1039F0004FF0FF33F7E72DE9F0470D460746114634
:103A000028461446FFF7DDFF061E08D1314638462A
:103A1000FFF7B4FD0123C0E90436BDE8F087A4BF79
:103A200023462C4638466168A6BF1D46002601265F
:103A3000FFF7A4FD2B69C660266905F1140904F19E
:103A4000140202EB860709EB830800F114054FF01E
:103A5000000E52F804AB59F8044B1EFA8AF1A3B2D7
:103A6000C91A230CC3EB1A4303EB214389B24FEA73
:103A7000234EC84541EA0343944645F8043BE8D841
:103A8000BC4504D355F8043D83B10661C5E75CF835
:103A9000041B1EFA81F31A1402EB11429BB243EA93
:103AA00002434FEA224E45F8043BE9E7013EE9E7CD
:103AB000114B10EE902A1A40A2F15073002B04DD36
:103AC0000020194641EC100B70475B421B15132B6D
:103AD0004FF000004FF0000104DC4FF4002242FAE6
:103AE00003F1EFE7143B1E2BDABF4FF0004222FA3E
:103AF00003F301231846E5E70000F07FF8B50569F8
:103B000000F1140707EB85052E1F55F8044C2046DD
:103B1000FFF7DBFDC0F120030A280B60DFF878C057
:103B200014DCC0F10B0E24FA0EF1B74241EA0C038B
:103B300034BF55F8081C0021153004FA00F021FAB2
:103B40000EF140EA010243EC102BF8BDB7423ABF38
:103B5000A5F1080655F8081C00210B3817D0C0F154
:103B6000200C04FA00F5BE4221FA0CF445EA0405E3
:103B70008CBF56F8044C002445F07F5301FA00F046
:103B800024FA0CF443F4401340EA0402DBE744EA6D
:103B90000C030A46D7E700BF0000F03F2DE9F743CA
:103BA0000E46012159EC108B1546FFF7E7FCC9F3CF
:103BB0000A540746C9F313032CBB0193B8F1000361
:103BC00026D068460093FFF7A0FD0099F0B1019A56
:103BD000C0F1200302FA03F30B43C2407B61019260
:103BE000019BBB61002B14BF022101213961C4B1CB
:103BF000A4F2334404443460C0F1350028603846F0
:103C000003B0BDE8F08343F48013D6E77961E7E7BA
:103C100001A8FFF77AFD019B7B610121396120300A
:103C2000E5E707EB8103A0F2324030601869FFF747
:103C30004CFDC0EB4110E1E72DE9F74F884669469E
:103C40008146FFF75BFF01A9404657EC106BFFF779
:103C500055FFD9F81030D8F81020A3EB020CDDE99D
:103C600000329B1A03EB4C135BEC10AB002BCEBF66
:103C70003A46C3EB03335A4659463D46D4BF02EB9E
:103C8000035102EB0355304610EE102A0B4629462D
:103C9000FDF748FE41EC100B03B0BDE8F08F17288C
:103CA000D0B5044607DC094B03EBC004D4E904019A
:103CB00041EC100BD0BD0649064F002000263246CD
:103CC0003B46FDF705FD013CF9D1F1E7A093010862
:103CD0000000F03F00002440013910B5491114697B
:103CE000013102F1140300EB810103EB8404A342D0
:103CF000024603D300238A4205D310BD53F8042B98
:103D000040F8042BF3E742F8043BF4E700F1140217
:103D100000694B11984210B511DB0ADD11F01F014B
:103D200007D052F8234024FA01F000FA01F18C4246
:103D30000BD102EB8303934203D8002010BD03464E
:103D4000F7E753F8041D0029F5D00120F6E700BF7E
:103D500038B50546002945D051F8043C0C1F002B0E
:103D6000B8BFE41800F056FF1F4A1368104633B975
:103D7000636014602846BDE8384000F04CBFA342A1
:103D80000CD921686218934204BF1A685B686360AB
:103D900004BF521822600460ECE713465A680AB167
:103DA000A242FAD919685818A0420BD120680144E0
:103DB000581882421960DDD1106852685A60014477
:103DC0001960D7E702D90C232B60D3E720682118AC
:103DD0008A4204BF11685268626004BF09182160FA
:103DE0005C60C7E738BD00BF00000020F8B5CE1CFE
:103DF00026F0030608360C2E38BF0C26002E074688
:103E000001DBB14203D90C233B600020F8BD214DFA
:103E100000F000FF2A68144694B96B6823B9214664
:103E2000384600F003FA68603146384600F0FEF983
:103E3000431C23D10C233B60384600F0ECFEE4E742
:103E400023689B1B17D40B2B03D923601C442660CB
:103E500004E06368A2420CBF2B605360384600F058
:103E6000DAFE04F10B00231D20F00700C21ACDD0AA
:103E70001B1AA350CAE722466468CDE7C41C24F08D
:103E80000304A042E3D0211A384600F0CFF90130F4
:103E9000DDD1CFE7000000202DE9F0478E689E427B
:103EA00082460C469146984638D8B1F80CC01CF4AE
:103EB000906F31D062692568096902EB42026F1A7E
:103EC00002EBD272013355103B449D4238BF1D4670
:103ED0001CF4806F30D02946FFF788FF064650B9A2
:103EE0000C23CAF80030A38943F04003A3814FF0AC
:103EF000FF30BDE8F0873A46216900F010FDA38944
:103F000023F4906343F08003A381266165613E44FE
:103F1000ED1B2660A5604646464500D9464632461A
:103F20004946206800F009FDA3689B1BA360236835
:103F30001E4426600020DCE72A4600F000FE06460C
:103F40000028E2D121695046FFF702FFC8E79368D5
:103F50002DE9F74F81460C461646002B5ED04FF0F8
:103F6000000BD2F800A05F4657B3A3689F4240D32E
:103F7000A28912F4906F3CD025682169A5EB010855
:103F8000656905EB450505EBD57508F101033B4473
:103F90006D109D4238BF1D46530544D529464846FD
:103FA000FFF724FF88B90C23C9F80030A38943F038
:103FB0004003A3810023C6E901334FF0FF302FE017
:103FC000DAE900B70AF1080ACEE742462169019012
:103FD00000F0A5FCA289019B22F4906242F08002CD
:103FE000A281236165614344A5EB08052360A560B8
:103FF0003B46BB4228BF3B461A46594620680193C0
:1040000000F09BFCA268019BD21AA26022681344B4
:104010002360B368DF1BB760002FD1D10020706030
:1040200003B0BDE8F08F2A46484600F088FD0346FD
:104030000028D6D121694846FFF78AFEB3E72DE96B
:10404000F04F1E468B891B069DB007460D46144651
:104050000ED50B6963B94021FFF7C8FE28602861BF
:1040600020B90C233B604FF0FF30C9E040236B6167
:104070000023099320238DF82930DFF89C910396C3
:1040800030238DF82A304FF0010A23461E4613F8DC
:10409000012B0AB1252AF9D1B6EB040B0BD05B46F4
:1040A000224629463846FFF7F7FE013000F0A3808C
:1040B000099B5B4409933378002B00F09C8000231C
:1040C0004FF0FF32CDE905230136049307938DF8B5
:1040D00053301A933446052214F8011B4E48FCF75E
:1040E00057F8049BC0B9D90644BF20228DF853204D
:1040F0001A0744BF2B228DF8532032782A2A13D076
:10410000079A344600200A26214611F8013B303B2D
:10411000092B4BD970B914E0A0EB09000AFA00F0A2
:10412000184304902646D5E7039A111D126803919F
:10413000002A01DB079204E0524243F00203079297
:10414000049323782E2B0CD163782A2B33D1039B35
:104150001A1D1B680392002BB8BF4FF0FF330234C7
:1041600005932E4E217803223046FCF711F838B122
:104170004023801B03FA00F0049B034301340493A3
:1041800014F8011B26488DF828100622FCF700F8C9
:10419000002838D0234B13BB039B073323F00703BE
:1041A00008330393099B434409936EE706FB0232ED
:1041B00001200C46A8E700230134059319460A267E
:1041C000204610F8012B303A092A03D9002BC8D019
:1041D0000591C6E706FB012101230446F0E703AB86
:1041E00000932A46104B04A93846FEF7CEF8B0F1EA
:1041F000FF3F8046D6D1AB895B063FF534AF0998C7
:104200001DB0BDE8F08F03AB00932A46064B04A90E
:104210003846FEF75AFBEAE7EDD70108F3D7010865
:10422000F7D701088B230008993E000838B5064CE3
:10423000002305460846236006F00CF9431C02D112
:10424000236803B12B6038BD441D002038B5D0F879
:10425000484105465CB98021FFF7C8FDC5F8480113
:1042600038B1031F7C3043F8044F8342FBD1002058
:1042700038BD4FF0FF30FBE71F2970B504460D46EF
:10428000164604D9162303604FF0FF3008E0D0F83B
:10429000483133B1D4F8483153F8250043F825604C
:1042A00070BDFFF7D3FF0028F4D0EDE71F2938B524
:1042B00004460D4604D9162303604FF0FF3038BD85
:1042C000D0F8482112B152F821304BB9204600F005
:1042D0006BF82A4601462046BDE8384000F052B847
:1042E000012B0AD0591C03D1162303600120E6E7F5
:1042F000002442F82540284698470020DFE71F2980
:1043000038B504460D4602D94FF0FF3038BDD0F81D
:10431000483133B1D4F8482152F8253033B901205F
:10432000F4E7FFF793FF0028F4D0EDE7591C08D01D
:10433000012B08D00024284642F825409847204603
:10434000E4E70220E2E70320E0E7024B01461868B9
:10435000FFF7ACBF68800020024B0A460146186890
:10436000FFF78ABF68800020014B1868FFF76EBF17
:1043700068800020024B01461868FFF7C0BF00BFED
:104380006880002038B5074C0023054608461146D2
:10439000236011F0B2FA431C02D1236803B12B60F1
:1043A00038BD00BF441D002011F0A9BA38B5074C34
:1043B000054608461146002222601A4611F092FA7C
:1043C000431C02D1236803B12B6038BD441D00207B
:1043D00038B5064C002305460846236011F086FADE
:1043E000431C02D1236803B12B6038BD441D00205B
:1043F00038B5074C0023054608461146236011F0E6
:1044000080FA431C02D1236803B12B6038BD00BF82
:10441000441D002038B5064C00230546084623609D
:1044200011F069FA431C02D1236803B12B6038BD37
:10443000441D002038B5074C0546084611460022A9
:1044400022601A4611F055FA431C02D1236803B1C9
:104450002B6038BD441D002010B4034CD4F8E44058
:10446000A4465DF8044B6047F882002082B001B991
:1044700001A942B14BB113780B601278101C18BF20
:10448000012002B070471046FBE76FF00100F8E72B
:1044900038B5074C054608461146002222601A46E8
:1044A00011F01CFA431C02D1236803B12B6038BD04
:1044B000441D002010B4034CD4F8E040A4465DF83D
:1044C000044B6047F882002049B1FF2A85BF8A2348
:1044D00003600A704FF0FF3098BF01207047084614
:1044E000704700BF4FF0FF3C06E000BF4FF0010CEB
:1044F00002E000BF4FF0010C4DF804CD4FEA410C33
:104500007FEA6C5C4FEA430C18BF7FEA6C5C1BD0FF
:1045100001B050EA410C0CBF52EA430C91EA030F80
:1045200002BF90EA020F0020704710F1000F91EADD
:10453000030F58BF994208BF90422CBFD8176FEAAB
:10454000E37040F0010070474FEA410C7FEA6C5C79
:1045500002D150EA013C07D14FEA430C7FEA6C5C80
:10456000D6D152EA033CD3D05DF8040B704700BFAC
:104570008446104662468C461946634600E000BFFA
:1045800001B5FFF7B7FF002848BF10F1000F01BDCC
:104590004DF808EDFFF7F4FF0CBF012000205DF897
:1045A00008FB00BF4DF808EDFFF7EAFF34BF01201C
:1045B00000205DF808FB00BF4DF808EDFFF7E0FFB5
:1045C00094BF012000205DF808FB00BF4DF808ED06
:1045D000FFF7CEFF94BF012000205DF808FB00BF6D
:1045E0004DF808EDFFF7C4FF34BF012000205DF84F
:1045F00008FB00BF4FEA410C7FEA6C5C02D150EA35
:10460000013C0AD14FEA430C7FEA6C5C02D152EACA
:10461000033C02D14FF0000070474FF0010070479B
:104620002DE9F04F099F154604468E461E46002B85
:1046300040F0CC808A42B2FA82FC4CD9BCF1000F27
:104640000BD0CCF1200801FA0CFE20FA08F802FA8F
:104650000CF548EA0E0E00FA0CF44FEA15491FFA61
:1046600085F8BEFBF9FA210C09FB1AE30AFB08FBEB
:1046700041EA03439B452AD9EB180AF1FF3004D2E3
:104680009B4502D9AAF102002B44A3EB0B03A4B271
:10469000B3FBF9F209FB123302FB08F844EA0344C6
:1046A000A04516D92C1902F1FF3303D2A04501D938
:1046B000931E2C44A4EB080443EA004027B124FADB
:1046C0000CF400233C607B603146BDE8F08F50461F
:1046D000DBE71346EEE702B9FFDEBCF1000F2ED197
:1046E0008B1A01264FEA154EAAB2B3FBFEF8210C35
:1046F0000EFB183308FB02F941EA0343994561D9DF
:10470000EB1808F1FF3004D2994502D9A8F1020054
:104710002B44A3EB0903A4B2B3FBFEF10EFB113350
:104720004A4344EA0344A2424ED92C1901F1FF3313
:1047300003D2A24201D98B1E2C44A41ABCE7CCF1AF
:10474000200E02FA0CF521FA0EF901FA0CF320FA08
:104750000EFE4EEA03034FEA154800FA0CF4B9FBCB
:10476000F8F11FFA85FE08FB1192180C01FB0EF6FA
:1047700040EA0242964221D9AA1801F1FF3003D241
:10478000964201D9881E2A44921B9BB2B2FBF8F9CB
:1047900008FB192209FB0EFE43EA02439E450FD98E
:1047A000EB1809F1FF3604D29E4502D9A9F10206A1
:1047B0002B44A3EB0E0346EA004693E70846E3E7E3
:1047C0004E46F6E74046A4E70B46B6E78B4205D9CE
:1047D0000FB1C7E900010026304675E7B3FA83FC44
:1047E000BCF1000F0FD18B4201D3824209D8841A49
:1047F00061EB030E0120002F6AD0C7E9004E0026AE
:1048000062E76046F7E7CCF1200E03FA0CF322FAD8
:104810000EF521FA0EF41D4301FA0CF320FA0EF105
:104820000B434FEA154A00FA0CF6B4FBFAF91FFAEB
:1048300085F80AFB19401C0C09FB08F144EA004406
:10484000A14202FA0CF23FD92C1909F1FF3004D22F
:10485000A14202D9A9F102002C44641A9BB2B4FB14
:10486000FAF90AFB194409FB08F843EA04418845B0
:104870002CD9691809F1FF3304D2884502D9A9F16E
:104880000203294443EA0040A1EB0801A0FB02898E
:104890004945C2464C4602D306D1464504D2B8EB40
:1048A000020A69EB0504013897B1B6EB0A0361EB24
:1048B000040606FA0EFE23FA0CF34EEA030326FA68
:1048C0000CF6C7E900369AE74846C6E74B46D9E7F3
:1048D0003E46F9E651EC100B10EE102A21F0004391
:1048E00043EC102B7047002070470028B8BF4042AF
:1048F00070470A220021FEF701BA0A230022FEF7C0
:10490000F3B930B501390024A24201D1002005E0FD
:10491000035D01340D5DAB42F6D0581B30BD0A4437
:10492000914200F1FF3300D1704710B511F8014BEF
:1049300003F8014F9142F9D110BD884210B501EB47
:10494000020302D983421C4607D8421E994208D06E
:1049500011F8014B02F8014FF8E783189A1A9A42AE
:1049600000D110BD14F8011D03F8011DF7E7024442
:104970000346934200D1704703F8011BF9E708B4DE
:1049800017B505AB141E53F8041B019307DA1A463A
:10499000FEF70CFA03B0BDE8104001B070470A46BC
:1049A0002146FEF7DFF90028F4DBA042F2D3FEF740
:1049B000A5FAC9B2034610F8012B1AB18A42F9D1FF
:1049C00018467047002918BF0023F9E710F8012B9B
:1049D00011F8013B012A28BF9A42F7D0D01A70473C
:1049E000034611F8012B03F8012B002AF9D1704777
:1049F000034613F8012B002AFBD1181A013870471F
:104A000010B56AB10139841810F8013B11F8012F73
:104A1000934203D1A04201D0002BF5D1981A10BDCA
:104A20001046FCE710B50139034632B111F8014FC9
:104A300003F8014B013A002CF7D11A4400219342AC
:104A400000D110BD03F8011BF9E738B503460D4648
:104A500069B9BDE83840FFF7ACBF431C044629469E
:104A60001846FFF7A6FF0028F7D1204638BD0024DE
:104A7000F5E7F0B50C7864B103461A7818465E1C69
:104A80000AB9104605E0944208D10D4615F8012FE9
:104A900002B9F0BD13F8017F9742F7D03346ECE737
:104AA00008B50620FFF751FC012005F0CBFC2DE9ED
:104AB000F041884600F5A674002614B93046BDE8DA
:104AC000F081D4E90175013F01D52468F5E7AB8990
:104AD000012B06D9B5F90E30013302D02846C04764
:104AE00006436435EFE72DE9F8438046894600F533
:104AF000A674002614B93046BDE8F883D4E90175E0
:104B0000013F01D52468F5E7AB89012B07D9B5F939
:104B10000E30013303D029464046C847064364356A
:104B2000EEE738B502FB01F42146FFF75FF90546D1
:104B300018B122460021FFF71AFF284638BDF8B504
:104B4000074614460E4621B91146BDE8F840FFF766
:104B50004DB922B9FFF7FCF825462846F8BD00F00C
:104B60005BF8A0420FD221463846FFF73FF90546D1
:104B70000028F2D031462246FFF7D1FE31463846B2
:104B8000FFF7E6F8E9E73546E7E710B50C46B1F977
:104B90000E10FFF77DFC0028ABBF236DA3891B1807
:104BA00023F48053ACBF2365A38110BD0020704760
:104BB0002DE9F0411F468B89DB0505460C4616465C
:104BC00005D502230022B1F90E10FFF733FCA389AB
:104BD000B4F90E1023F48053A38132463B46284695
:104BE000BDE8F041FFF7E2BB10B50C46B1F90E107D
:104BF000FFF720FC431CA38915BF206523F48053D5
:104C000043F48053A38118BFA38110BDB1F90E10E6
:104C1000FFF7DEBB7047704751F8043C181F002BAC
:104C2000BCBF0B58C01870472DE9F04F2DED088B15
:104C3000AC4BAD4AAD48A3B0CDE90D230EF001FA5F
:104C40008346AA480EF0FDF98246A8480EF0F9F90D
:104C50008146A6480EF0F5F98046A4480EF0F1F919
:104C60000746A2480EF0EDF90646A0480EF0E9F915
:104C700005469E480EF0E5F90921044658460EF017
:104C8000ECF9082150460EF0E8F90A2148460EF0EA
:104C9000E4F90F2140460EF0E0F90B2138460EF002
:104CA000DCF90E2130460EF0D8F90C2128460EF022
:104CB000D4F90D2120460EF0D0F903230122092159
:104CC000584602930EF0BFF90122082150460EF01B
:104CD000BAF901220A2148460EF0B5F901220F2146
:104CE00040460EF0B0F901220B2138460EF0ABF928
:104CF00001220E2130460EF0A6F901220C21284691
:104D00000EF0A1F901220D2120460EF09CF94FF47E
:104D1000FA700DF0BBFD0022092158460EF093F900
:104D20000022082150460EF08EF900220A21484642
:104D30000EF089F900220F2140460EF084F900227E
:104D40000B2138460EF07FF900220E2130460EF07E
:104D50007AF900220C2128460EF075F900220D2167
:104D600020460EF070F94FF4FA700DF08FFD029BA3
:104D7000013BA3D15E480EF064F905465D480EF094
:104D800060F904465C480EF05CF9834628B103687C
:104D900001461A6859480EF013FD2DB12B6857488B
:104DA0001A6829460EF00CFD2CB1236853481A6886
:104DB00021460EF005FD524B1A9300238DF87C30EE
:104DC00050491BAA022010F079FBBDF8680011229F
:104DD000022103F031FD4C4F002838600FDA10F04B
:104DE00095FD01684948FDF793FE10F08FFD0368BB
:104DF0005B42002B1ADA4648FDF78AFE16E01822BD
:104E00001AA910F098F9002804DA10F07FFD016863
:104E10004048E8E74049414A0B68386842F83300A7
:104E200002EBC3020120034490800B603C4B1AAAA2
:104E300003F1100C18685968164603C60833634519
:104E40003246F7D118689B88B380DFF8CCA0DFF832
:104E5000CC9030600023CDF87E30CDF88230314BDD
:104E600014931AA9002314A8159300F07BFCDAF818
:104E700000104FF0FF32484603F000FE002805DA2C
:104E800010F044FD01682848FDF742FE4FF48070A1
:104E90000DF0E2F880460028E1D0386800264FF493
:104EA0008072CDE900664023414610F0EEFA021E02
:104EB00003D11E48FDF72CFED1E707DA10F026FDDE
:104EC00003680B2BCBD010F021FDC8E700963346CA
:104ED00092B2414614A810F026F800282ADA1448A5
:104EE000E8E700BF0008C41A01030048B0A30108A6
:104EF000B6A30108BDA30108C9A30108DAA30108EC
:104F000002001633F4A301081C00002001A40108CC
:104F100042A4010820A4010818000020100000206D
:104F2000F494010854A401085DA401086EA40108CA
:104F300078A4010811A914A810F04EF80378792B71
:104F40008DD1B046BC48FDF7E3FDDBF804302521E8
:104F50009B68584698471822002114A8FFF707FDC0
:104F6000032114AA58460EF069F80023CDE9113345
:104F700013930DF150090DF1440A1E46D9ED017A43
:104F8000F8EEE77A013617EE900AFCF749FBA4A386
:104F9000D3E90023FCF79CFBCDE9020159F8080B8B
:104FA00007EE900AF8EEE77A17EE900AFCF738FB66
:104FB00002460B46DDE90201FCF7D4F9FCF7C2FD1D
:104FC000032E4AF8040BD9D19DED139ADDED11AAF9
:104FD00069EE099AF0EE697A4AEEAA7A17EE900A1B
:104FE000FCF71EFB41EC100BFCF7BEFE51EC100B66
:104FF000FCF7A8FD9DED12AA4AEE0A9A0BEE100AE4
:1050000019EE900AFCF70CFB41EC100BFCF7ACFE20
:1050100051EC100BFCF796FD07EE900ACAEE8B9A46
:10502000CAEE27AA89EE27AAC9EE0B7A19EE900AD2
:10503000F5EEC07AF1EE10FAC0F2AD80FCF7F0FAAE
:10504000F5EEC09AF1EE10FA41EC100B11D8FCF716
:1050500033FE0022794B51EC100BFCF739FB72A3A5
:10506000D3E90023FCF75EFC754B0022FCF778F9CE
:1050700011E0FCF721FE0022704B51EC100BFCF705
:1050800027FB69A3D3E90023FCF74CFC68A3D3E911
:105090000023FCF767F9FCF755FD81461AEE100A6C
:1050A000FCF7BEFAF5EEC0AAF1EE10FA41EC100BD7
:1050B000C0F28880FCF700FE0022604B51EC100B20
:1050C000FCF706FB58A3D3E90023FCF72BFC0246B0
:1050D0000B4600205B49FCF743F9FCF733FD0290D7
:1050E000636825219B68204698470D2107AA204622
:1050F0000DF0A4FF0E2109AA20460DF09FFF1021FC
:105100000BAA20460DF09AFFDDE909124E48FDF783
:10511000FFFCDDE907124D48FDF7FAFCDDE90B1253
:105120004B48FDF7F5FC282200214A48FFF71FFCF9
:105130000DAF002617F8011B6B6828465B68013627
:105140009847082EF6D100231F463946424805935A
:10515000FDF7DEFC6A680DF11B01126828469047D6
:10516000824600283FD0059B242F03F1010A51D12C
:10517000384F002617F8011B38480136FDF7C8FCE8
:10518000242EF7D1BAF1310F2ADD35489FED358A4B
:10519000FDF7BEFCA1E0FCF743FA41EC100BFCF775
:1051A0008BFD0022254B51EC100BFCF791FA1EA34E
:1051B000D3E90023FCF7B6FB02460B461CA1D1E95C
:1051C000000153E7FCF778FD00221C4B51EC100B5B
:1051D000FCF77EFA14A3D3E90023FCF7A3FB7CE7DA
:1051E00053463746B1E77E1C1A4A9DF81B30D3550B
:1051F000242EBDD0252EF3D1164E232130460DF09E
:1052000036FF96F82320C3B29A422FD01648FDF7F6
:105210007FFC62E0BAF1310FB7DC3E46EAE700BF3F
:105220008DEDB5A0F7C6B03E00000060FB2109403F
:105230000000000000E070408EA40108008066407D
:105240000080564000807640B5A40108C4A401083F
:10525000D3A40108621A0020E3A40108EBA401080A
:1052600062A501080000000010A5010896F824308E
:10527000C0F307208342C9D1D6F807301BBA08EE25
:10528000103AD6F81B30F8EE487A1BBA17EE900A9F
:1052900008EE903AFCF7C4F98FA3D3E90023FCF79A
:1052A00041FB02460B469048FDF732FCF8EE687A67
:1052B00017EE900AFCF7B4F900228C4BFCF732FB96
:1052C00002460B468A48FDF723FC002301334FF0CA
:1052D0000002252B06F8012BF8D11E22002185485B
:1052E000FFF745FBF8EE487A08F1010817EE900A3F
:1052F000FCF796F978A3D3E90023FCF713FB1E22F1
:10530000CDE900017C4B7B480021FFF738FB7B4B4C
:105310000F93784900230FA8109300F023FA1E2260
:1053200000217748FFF723FBF8EE687A17EE900A22
:10533000FCF776F900226D4BFCF7F4FA1E22CDE95A
:1053400000016D4B6E480021FFF719FB6D4B0F9369
:105350006B4900230FA8109300F004FA1E220021CD
:105360006948FFF704FBDDED087AF8EEE77A17EEFF
:10537000900AFCF755F95AA3D3E90023FCF7A8F9E2
:10538000DDED077AF8EEE77A064617EE900A0F464B
:10539000FCF746F902460B4630463946FBF7E2FF7A
:1053A0001E22CDE90001544B57480021FFF7E7FAD0
:1053B000564B0F93544900230FA8109300F0D2F9D5
:1053C0001E2200215248FFF7D2FA00EE109A00F098
:1053D0002DFA9DED020A064600F028FA1E22CDE9BC
:1053E00000604C4B4A480021FFF7C9FA4A4B0F9323
:1053F000474900230FA8109300F0B4F91E220021A2
:105400004648FFF7B4FADDED0A7AF8EEE77A17EED0
:10541000900AFCF705F932A3D3E90023FCF758F909
:10542000DDED097AF8EEE77A064617EE900A0F46A8
:10543000FCF7F6F802460B4630463946FBF792FF7A
:105440001E22CDE900012C4B34480021FFF797FACA
:10545000334B0F93314900230FA8109300F082F9CA
:105460001E2200212F48FFF782FADDED0C7AF8EEBC
:10547000E77A17EE900AFCF7D3F819A3D3E90023D3
:10548000FCF726F9DDED0B7AF8EEE77A064617EE23
:10549000900A0F46FCF7C4F802460B4630463946E0
:1054A000FBF760FF1E22CDE90001134B1D480021D0
:1054B000FFF765FA1C4B0F931A4900230FA81093AE
:1054C00000F050F941461948FDF722FB64200DF029
:1054D000DDF937E5AFF30080000000000088C3402D
:1054E0008DEDB5A0F7C6B03EEFA40108000059400D
:1054F00000A50108261A00201CA5010821A5010805
:10550000AE1900202FA50108081A00203AA50108AD
:10551000441A002043A5010849A50108EA19002002
:1055200050A50108CC1900205AA50108C4C20108E1
:105530002DE9F04F8BB000238B46042408A90646C2
:10554000CDE9083407F01EFB824618B9FE200BB0E7
:10555000BDE8F08F2146304611F010FB07A9304618
:1055600011F02BFB04460028F0D104F00FFA079B42
:10557000C01A294B07901F68BBF804301D0245EA8A
:105580001325F38FC3F1FF2303F57F03FC330BF1E6
:105590000801022013FA85F506F09CFD0BF11801B5
:1055A0008046022006F096FD1C49BAF802A081460A
:1055B000079817A3D3E90023A0FB0101FCF762FBC6
:1055C00007EE900AB8EE677ADFED157AC7EE277A14
:1055D00017EE900AFCF724F89BF8073003934FEA84
:1055E0000A2343EA1A239BB2CDE90401CDE90193D2
:1055F000CDF800802B460B4A214638460EF0BAFE05
:1056000009480DF067F9304611F0C0F920469EE7D1
:1056100000A24A0400000000B00E002000CA9A3B1D
:1056200000247449E8C50108EC9000200000000047
:1056300003297FB506466BD8002A3CD0062A57D1ED
:105640005C681A683E4BE517C3FB0245012C75F1F7
:10565000000322DB3B4838A3D3E9002320184FF096
:10566000000145EB0101FCF7BDFA80B202281CD015
:1056700004281CD008281CD0102823D10323324929
:10568000B26851F82310D1603046009304223023D1
:10569000232112F0C0FD04B070BD2C48201826A3B1
:1056A000D3E9002345F1FF31DDE70023E7E70123DC
:1056B000E5E70223E3E71B8823B11446244A0134BB
:1056C0000B2C02D16FF01500E5E732F81410994267
:1056D000F5D10DF10F022021B06812F082FD0028F3
:1056E000D9DB9DF80F301907224604D4082C05D1C8
:1056F0006FF08500CFE70A2C08BF092203F00F03E3
:1057000043EA0212D2B22021B06812F056FDC2E77D
:10571000104B1B6813F0060FEAD002234FF0000174
:1057200063F307010C4A0D4B0D489B1ADB0863F32A
:105730008F110EF066FADBE73AA395000000000037
:1057400040420F009DD14A00BCA20108632EB5FF64
:1057500094A30108E48F0020489201087092010888
:105760008CD40108F0B504468BB04FF480700F461E
:105770000CF072FC054600284BD002F0EFFF064605
:1057800003F000F80223CDE9026308220023CDE9EB
:105790000032049001234FF48072294606A80FF0CE
:1057A0006CFB002810DA1C48FDF7B2F9284612F00D
:1057B000EAFE00200BB0F0BD34B906A80FF09EFB46
:1057C000002812DA1548EFE754F8046B002EF4D0E5
:1057D0003046FFF70DF9324683B20B2106A802F0DE
:1057E00011FF0028E8DA0E48DEE71E22394606A837
:1057F0000FF08EFB002801DA0A48D5E70A4B06991C
:105800001868BDF81C200023CDE900330FF0B4FC6C
:10581000CCE76FF00B00CDE776A50108AFA5010836
:1058200092A50108CFA501081C00002008B510EEC4
:10583000100AFBF7F5FE0022054BFBF793FDFCF782
:1058400059F9B0F5B47FA8BFA0F5B47008BD00BF8A
:105850000000E03F032808B506D910F057F80923E7
:1058600003604FF0FF3008BD034B53F83030002B7E
:10587000F3D00020F7E700BF2000002038B5044631
:105880000D46FFF7E7FF0028A1BF054B03EBC4025D
:1058900053F834005268ACBF2A60002038BD00BF06
:1058A0002000002010B54FF0FF310D480CF094FCA3
:1058B0000C4B002453F834206AB10134042CF9D184
:1058C00010F024F8172303604FF0FF3404480CF065
:1058D000F5FC204610BD012243F83420F6E700BF56
:1058E0003491002020000020034B43F8301003EBDC
:1058F000C0035A60704700BF20000020024B002206
:1059000043F83020704700BF200000200B680133AF
:105910000B60014B1B681847588800202DE9F04F99
:1059200085B09B460E9CDFF88890012CB8BF0124FF
:10593000012B0CBF30232023164682468846029353
:1059400001250A270022B6FBF9F301930AB9B145F4
:105950001DD8019B414603F13000D047013501229B
:10596000019B013F012F09FB13664FF00A03B9FBAE
:10597000F3F9E8D1414606F13000D047BBF1030FFF
:1059800002D1641B002C0EDC05B0BDE8F08FBC42D8
:10599000E6DBBBF1020FE3D84146029803920135E2
:1059A000D047039ADCE741462020D047013CE9E795
:1059B00000CA9A3B014B1860704700BF588800200E
:1059C00007B50023019302460B46034801A90DF0D9
:1059D00087FD03B05DF804FB0D59000830B585B0B4
:1059E000CDE901010446002501A9054803950DF004
:1059F00077FDDDE902309842B8BF255405B030BDCF
:105A0000BB3401084FF01002EFF3118382F31188C9
:105A1000BFF36F8F83F31188BFF36F8F024B034A7D
:105A20001A600020704700BF748E002000127A00B8
:105A30000B0706D5034BC35C03F00303012B08BF20
:105A4000203070471395010830B5002287B00D490A
:105A50000D4813F0AAF80D4D0D4900240E23CDE991
:105A60000243CDE90444CDE900440A4B4FF44072AF
:105A700028460CF0EBFF0849284612F09EFF20460E
:105A800007B030BD9D5A0008540000209C00002043
:105A9000481D00209D600008F4A9010801480CF091
:105AA00019BF00BFA490002038B500F057FB134881
:105AB000134C0EF07CF8134913480423342212F0DF
:105AC0003DFD124B124A1A604FF47A7000F07AFDD5
